{
  "contractName": "Camps",
  "abi": [
    {
      "anonymous": false,
      "inputs": [
        {
          "indexed": false,
          "internalType": "string",
          "name": "_camp",
          "type": "string"
        }
      ],
      "name": "targetReachedForCamp",
      "type": "event"
    },
    {
      "inputs": [
        {
          "internalType": "string",
          "name": "",
          "type": "string"
        }
      ],
      "name": "camps",
      "outputs": [
        {
          "internalType": "bool",
          "name": "campExists",
          "type": "bool"
        },
        {
          "internalType": "uint256",
          "name": "fundingRaised",
          "type": "uint256"
        },
        {
          "internalType": "uint256",
          "name": "target",
          "type": "uint256"
        },
        {
          "internalType": "uint256",
          "name": "equity",
          "type": "uint256"
        },
        {
          "internalType": "bool",
          "name": "targetReached",
          "type": "bool"
        }
      ],
      "stateMutability": "view",
      "type": "function",
      "constant": true
    },
    {
      "inputs": [
        {
          "internalType": "string",
          "name": "",
          "type": "string"
        },
        {
          "internalType": "string",
          "name": "",
          "type": "string"
        }
      ],
      "name": "funding",
      "outputs": [
        {
          "internalType": "uint256",
          "name": "",
          "type": "uint256"
        }
      ],
      "stateMutability": "view",
      "type": "function",
      "constant": true
    },
    {
      "inputs": [
        {
          "internalType": "string",
          "name": "_camp",
          "type": "string"
        },
        {
          "internalType": "uint256",
          "name": "_target",
          "type": "uint256"
        },
        {
          "internalType": "uint256",
          "name": "_equity",
          "type": "uint256"
        }
      ],
      "name": "createCamp",
      "outputs": [],
      "stateMutability": "nonpayable",
      "type": "function"
    },
    {
      "inputs": [
        {
          "internalType": "string",
          "name": "_angel",
          "type": "string"
        },
        {
          "internalType": "string",
          "name": "_camp",
          "type": "string"
        },
        {
          "internalType": "uint256",
          "name": "_amount",
          "type": "uint256"
        }
      ],
      "name": "buyEquity",
      "outputs": [],
      "stateMutability": "nonpayable",
      "type": "function"
    },
    {
      "inputs": [
        {
          "internalType": "string",
          "name": "_camp",
          "type": "string"
        }
      ],
      "name": "getAngelListLength",
      "outputs": [
        {
          "internalType": "uint256",
          "name": "",
          "type": "uint256"
        }
      ],
      "stateMutability": "view",
      "type": "function",
      "constant": true
    },
    {
      "inputs": [
        {
          "internalType": "string",
          "name": "_camp",
          "type": "string"
        }
      ],
      "name": "getAngelList",
      "outputs": [
        {
          "internalType": "string[]",
          "name": "",
          "type": "string[]"
        }
      ],
      "stateMutability": "view",
      "type": "function",
      "constant": true
    }
  ],
  "bytecode": "0x608060405234801561001057600080fd5b506110a9806100206000396000f3fe608060405234801561001057600080fd5b506004361061007f576000357c0100000000000000000000000000000000000000000000000000000000900480634283757b1461008457806357087c72146100b45780636a0d2c0d146100d0578063a825f94714610100578063ab2c86cd14610130578063afec007614610164575b600080fd5b61009e6004803603810190610099919061093b565b610180565b6040516100ab9190610df1565b60405180910390f35b6100ce60048036038101906100c991906109a7565b6101d1565b005b6100ea60048036038101906100e591906108fa565b6104b0565b6040516100f79190610cfa565b60405180910390f35b61011a600480360381019061011591906108fa565b6105aa565b6040516101279190610df1565b60405180910390f35b61014a600480360381019061014591906108fa565b6105d8565b60405161015b959493929190610d1c565b60405180910390f35b61017e60048036038101906101799190610a26565b61063e565b005b60008280516020810182018051848252602083016020850120818352809550505050505081805160208101820180518482526020830160208501208183528095505050505050600091509150505481565b600115156001836040516101e59190610ce3565b908152602001604051809103902060000160009054906101000a900460ff16151514610246576040517f08c379a000000000000000000000000000000000000000000000000000000000815260040161023d90610db1565b60405180910390fd5b6001826040516102569190610ce3565b908152602001604051809103902060030154816001846040516102799190610ce3565b9081526020016040518091039020600101546102959190610ede565b1061030e5760006001836040516102ac9190610ce3565b908152602001604051809103902060000160006101000a81548160ff021916908315150217905550600180836040516102e59190610ce3565b908152602001604051809103902060050160006101000a81548160ff0219169083151502179055505b8060008360405161031f9190610ce3565b90815260200160405180910390208460405161033b9190610ce3565b9081526020016040518091039020546103549190610ede565b6000836040516103649190610ce3565b9081526020016040518091039020846040516103809190610ce3565b908152602001604051809103902081905550806001836040516103a39190610ce3565b9081526020016040518091039020600101546103bf9190610ede565b6001836040516103cf9190610ce3565b9081526020016040518091039020600101819055506001826040516103f49190610ce3565b90815260200160405180910390206002018390806001815401808255809150506001900390600052602060002001600090919091909150908051906020019061043e9291906107da565b5060018260405161044f9190610ce3565b908152602001604051809103902060050160009054906101000a900460ff16156104ab577f5632677722513346181a87628b856d0101ecaa631036f77d14d1f3c17542f8d3826040516104a29190610d6f565b60405180910390a15b505050565b60606001826040516104c29190610ce3565b9081526020016040518091039020600201805480602002602001604051908101604052809291908181526020016000905b8282101561059f57838290600052602060002001805461051290610f8c565b80601f016020809104026020016040519081016040528092919081815260200182805461053e90610f8c565b801561058b5780601f106105605761010080835404028352916020019161058b565b820191906000526020600020905b81548152906001019060200180831161056e57829003601f168201915b5050505050815260200190600101906104f3565b505050509050919050565b60006001826040516105bc9190610ce3565b9081526020016040518091039020600201805490509050919050565b6001818051602081018201805184825260208301602085012081835280955050505050506000915090508060000160009054906101000a900460ff16908060010154908060030154908060040154908060050160009054906101000a900460ff16905085565b600015156001846040516106529190610ce3565b908152602001604051809103902060000160009054906101000a900460ff161515146106b3576040517f08c379a00000000000000000000000000000000000000000000000000000000081526004016106aa90610dd1565b60405180910390fd5b6001836040516106c39190610ce3565b9081526020016040518091039020600301548211610716576040517f08c379a000000000000000000000000000000000000000000000000000000000815260040161070d90610d91565b60405180910390fd5b600180846040516107279190610ce3565b908152602001604051809103902060000160006101000a81548160ff021916908315150217905550816001846040516107609190610ce3565b908152602001604051809103902060030181905550806001846040516107869190610ce3565b90815260200160405180910390206004018190555060006001846040516107ad9190610ce3565b908152602001604051809103902060050160006101000a81548160ff021916908315150217905550505050565b8280546107e690610f8c565b90600052602060002090601f016020900481019282610808576000855561084f565b82601f1061082157805160ff191683800117855561084f565b8280016001018555821561084f579182015b8281111561084e578251825591602001919060010190610833565b5b50905061085c9190610860565b5090565b5b80821115610879576000816000905550600101610861565b5090565b600061089061088b84610e3d565b610e0c565b9050828152602081018484840111156108a857600080fd5b6108b3848285610f4a565b509392505050565b600082601f8301126108cc57600080fd5b81356108dc84826020860161087d565b91505092915050565b6000813590506108f48161105c565b92915050565b60006020828403121561090c57600080fd5b600082013567ffffffffffffffff81111561092657600080fd5b610932848285016108bb565b91505092915050565b6000806040838503121561094e57600080fd5b600083013567ffffffffffffffff81111561096857600080fd5b610974858286016108bb565b925050602083013567ffffffffffffffff81111561099157600080fd5b61099d858286016108bb565b9150509250929050565b6000806000606084860312156109bc57600080fd5b600084013567ffffffffffffffff8111156109d657600080fd5b6109e2868287016108bb565b935050602084013567ffffffffffffffff8111156109ff57600080fd5b610a0b868287016108bb565b9250506040610a1c868287016108e5565b9150509250925092565b600080600060608486031215610a3b57600080fd5b600084013567ffffffffffffffff811115610a5557600080fd5b610a61868287016108bb565b9350506020610a72868287016108e5565b9250506040610a83868287016108e5565b9150509250925092565b6000610a998383610b25565b905092915050565b6000610aac82610e7d565b610ab68185610ea0565b935083602082028501610ac885610e6d565b8060005b85811015610b045784840389528151610ae58582610a8d565b9450610af083610e93565b925060208a01995050600181019050610acc565b50829750879550505050505092915050565b610b1f81610f34565b82525050565b6000610b3082610e88565b610b3a8185610eb1565b9350610b4a818560208601610f59565b610b538161104b565b840191505092915050565b6000610b6982610e88565b610b738185610ec2565b9350610b83818560208601610f59565b610b8c8161104b565b840191505092915050565b6000610ba282610e88565b610bac8185610ed3565b9350610bbc818560208601610f59565b80840191505092915050565b6000610bd5604383610ec2565b91507f5461726765742063616e6e6f7420626520736d616c6c6572207468616e206f7260008301527f20657175616c20746f207468652074617267657420616c72656164792069737360208301527f75656400000000000000000000000000000000000000000000000000000000006040830152606082019050919050565b6000610c61600e83610ec2565b91507f43616d70206e6f7420666f756e640000000000000000000000000000000000006000830152602082019050919050565b6000610ca1601383610ec2565b91507f43616d7020616c726561647920657869737473000000000000000000000000006000830152602082019050919050565b610cdd81610f40565b82525050565b6000610cef8284610b97565b915081905092915050565b60006020820190508181036000830152610d148184610aa1565b905092915050565b600060a082019050610d316000830188610b16565b610d3e6020830187610cd4565b610d4b6040830186610cd4565b610d586060830185610cd4565b610d656080830184610b16565b9695505050505050565b60006020820190508181036000830152610d898184610b5e565b905092915050565b60006020820190508181036000830152610daa81610bc8565b9050919050565b60006020820190508181036000830152610dca81610c54565b9050919050565b60006020820190508181036000830152610dea81610c94565b9050919050565b6000602082019050610e066000830184610cd4565b92915050565b6000604051905081810181811067ffffffffffffffff82111715610e3357610e3261101c565b5b8060405250919050565b600067ffffffffffffffff821115610e5857610e5761101c565b5b601f19601f8301169050602081019050919050565b6000819050602082019050919050565b600081519050919050565b600081519050919050565b6000602082019050919050565b600082825260208201905092915050565b600082825260208201905092915050565b600082825260208201905092915050565b600081905092915050565b6000610ee982610f40565b9150610ef483610f40565b9250827fffffffffffffffffffffffffffffffffffffffffffffffffffffffffffffffff03821115610f2957610f28610fbe565b5b828201905092915050565b60008115159050919050565b6000819050919050565b82818337600083830152505050565b60005b83811015610f77578082015181840152602081019050610f5c565b83811115610f86576000848401525b50505050565b60006002820490506001821680610fa457607f821691505b60208210811415610fb857610fb7610fed565b5b50919050565b7f4e487b7100000000000000000000000000000000000000000000000000000000600052601160045260246000fd5b7f4e487b7100000000000000000000000000000000000000000000000000000000600052602260045260246000fd5b7f4e487b7100000000000000000000000000000000000000000000000000000000600052604160045260246000fd5b6000601f19601f8301169050919050565b61106581610f40565b811461107057600080fd5b5056fea264697066735822122001892c67989255f145a1475e9000e4fc224c7f3e3f4fbc5956aac964df8370d564736f6c63430008000033",
  "immutableReferences": {},
  "source": "// SPDX-License-Identifier: GPL-3.0\r\n\r\npragma solidity ^0.8.0;\r\n\r\n// Camp - A camp that is created by a Creative ( OP - Original Posters ) on Collective to raise funding\r\n\r\n// Angel - Angels are the users who buy equity in exchange of CTV - CollectiveToken\r\n\r\ncontract Camps {\r\n    \r\n    mapping(string =>mapping(string => uint)) public funding;\r\n    mapping(string => CampDetails) public camps;\r\n    \r\n    struct CampDetails{\r\n        bool campExists;\r\n        uint fundingRaised;\r\n        string[] angelList;\r\n        uint target;\r\n        uint equity;\r\n        bool targetReached;\r\n    }\r\n    \r\n    \r\n    //Create a new camp on Collective\r\n    \r\n    function createCamp(string memory _camp, uint _target, uint _equity) public {\r\n        require(camps[_camp].campExists == false,'Camp already exists');\r\n        require(_target > camps[_camp].target,'Target cannot be smaller than or equal to the target already issued');\r\n        camps[_camp].campExists = true;\r\n        camps[_camp].target = _target;\r\n        camps[_camp].equity = _equity;\r\n        camps[_camp].targetReached = false;\r\n    }\r\n    \r\n    \r\n    // Emit event when the camp target is reached\r\n    \r\n    event targetReachedForCamp(string _camp);\r\n    \r\n    \r\n    // Buying equity in the camp\r\n    \r\n    function buyEquity(string memory _angel,string memory _camp,uint _amount) public {\r\n        require(camps[_camp].campExists == true,'Camp not found');\r\n        if(camps[_camp].fundingRaised + _amount >= camps[_camp].target){\r\n            camps[_camp].campExists = false;\r\n            camps[_camp].targetReached = true;\r\n        }\r\n        funding[_camp][_angel] = funding[_camp][_angel] + _amount;\r\n        camps[_camp].fundingRaised = camps[_camp].fundingRaised + _amount;\r\n        camps[_camp].angelList.push(_angel);\r\n        \r\n\r\n        if(camps[_camp].targetReached){\r\n            emit targetReachedForCamp(_camp);\r\n        }\r\n        \r\n    }\r\n    \r\n    \r\n    // get the total number of Angels who bought equity in a camp \r\n    \r\n    function getAngelListLength(string memory _camp) public view returns(uint){\r\n        return camps[_camp].angelList.length;\r\n    }\r\n    \r\n    \r\n     // get the list of Angels who bought equity in a camp \r\n    \r\n    function getAngelList(string memory _camp) public view returns(string[] memory){\r\n        return camps[_camp].angelList;\r\n    }\r\n    \r\n    \r\n\r\n}\r\n\r\n\r\n\r\n\r\n\r\n\r\n",
  "sourcePath": "D:/SagarWorkspace/Collective/backend/contracts/Camps.sol",
  "compiler": {
    "name": "solc",
    "version": "0.8.0+commit.c7dfd78e.Linux.g++"
  },
  "schemaVersion": "3.2.3",
  "updatedAt": "2021-05-22T10:48:42.791Z",
  "networkType": "ethereum",
  "devdoc": {
    "kind": "dev",
    "methods": {},
    "version": 1
  },
  "userdoc": {
    "kind": "user",
    "methods": {},
    "version": 1
  }
}