{
  "contractName": "Camps",
  "abi": [
    {
      "anonymous": false,
      "inputs": [
        {
          "indexed": false,
          "internalType": "string",
          "name": "_camp",
          "type": "string"
        }
      ],
      "name": "targetReachedForCamp",
      "type": "event"
    },
    {
      "inputs": [
        {
          "internalType": "string",
          "name": "",
          "type": "string"
        }
      ],
      "name": "camps",
      "outputs": [
        {
          "internalType": "bool",
          "name": "campExists",
          "type": "bool"
        },
        {
          "internalType": "uint256",
          "name": "fundingRaised",
          "type": "uint256"
        },
        {
          "internalType": "uint256",
          "name": "target",
          "type": "uint256"
        },
        {
          "internalType": "uint256",
          "name": "equity",
          "type": "uint256"
        },
        {
          "internalType": "bool",
          "name": "targetReached",
          "type": "bool"
        }
      ],
      "stateMutability": "view",
      "type": "function",
      "constant": true
    },
    {
      "inputs": [
        {
          "internalType": "string",
          "name": "",
          "type": "string"
        },
        {
          "internalType": "string",
          "name": "",
          "type": "string"
        }
      ],
      "name": "funding",
      "outputs": [
        {
          "internalType": "uint256",
          "name": "",
          "type": "uint256"
        }
      ],
      "stateMutability": "view",
      "type": "function",
      "constant": true
    },
    {
      "inputs": [
        {
          "internalType": "string",
          "name": "_camp",
          "type": "string"
        },
        {
          "internalType": "uint256",
          "name": "_target",
          "type": "uint256"
        },
        {
          "internalType": "uint256",
          "name": "_equity",
          "type": "uint256"
        }
      ],
      "name": "createCamp",
      "outputs": [],
      "stateMutability": "nonpayable",
      "type": "function"
    },
    {
      "inputs": [
        {
          "internalType": "string",
          "name": "_angel",
          "type": "string"
        },
        {
          "internalType": "string",
          "name": "_camp",
          "type": "string"
        },
        {
          "internalType": "uint256",
          "name": "_amount",
          "type": "uint256"
        }
      ],
      "name": "buyEquity",
      "outputs": [],
      "stateMutability": "nonpayable",
      "type": "function"
    },
    {
      "inputs": [
        {
          "internalType": "string",
          "name": "_camp",
          "type": "string"
        }
      ],
      "name": "getAngelListLength",
      "outputs": [
        {
          "internalType": "uint256",
          "name": "",
          "type": "uint256"
        }
      ],
      "stateMutability": "view",
      "type": "function",
      "constant": true
    },
    {
      "inputs": [
        {
          "internalType": "string",
          "name": "_camp",
          "type": "string"
        }
      ],
      "name": "getAngelList",
      "outputs": [
        {
          "internalType": "string[]",
          "name": "",
          "type": "string[]"
        }
      ],
      "stateMutability": "view",
      "type": "function",
      "constant": true
    }
  ],
  "bytecode": "0x608060405234801561001057600080fd5b50610f9e806100206000396000f3fe608060405234801561001057600080fd5b506004361061007f576000357c0100000000000000000000000000000000000000000000000000000000900480634283757b1461008457806357087c72146100b45780636a0d2c0d146100d0578063a825f94714610100578063ab2c86cd14610130578063afec007614610164575b600080fd5b61009e600480360381019061009991906108dc565b610180565b6040516100ab9190610ce6565b60405180910390f35b6100ce60048036038101906100c99190610948565b6101d1565b005b6100ea60048036038101906100e5919061089b565b6104b4565b6040516100f79190610c0f565b60405180910390f35b61011a6004803603810190610115919061089b565b6105ae565b6040516101279190610ce6565b60405180910390f35b61014a6004803603810190610145919061089b565b6105dc565b60405161015b959493929190610c31565b60405180910390f35b61017e600480360381019061017991906109c7565b610642565b005b60008280516020810182018051848252602083016020850120818352809550505050505081805160208101820180518482526020830160208501208183528095505050505050600091509150505481565b600115156001836040516101e59190610bf8565b908152602001604051809103902060000160009054906101000a900460ff1615151480156102455750600015156001836040516102229190610bf8565b908152602001604051809103902060050160009054906101000a900460ff161515145b610284576040517f08c379a000000000000000000000000000000000000000000000000000000000815260040161027b90610ca6565b60405180910390fd5b6001826040516102949190610bf8565b908152602001604051809103902060030154816001846040516102b79190610bf8565b9081526020016040518091039020600101546102d39190610dd3565b1061031257600180836040516102e99190610bf8565b908152602001604051809103902060050160006101000a81548160ff0219169083151502179055505b806000836040516103239190610bf8565b90815260200160405180910390208460405161033f9190610bf8565b9081526020016040518091039020546103589190610dd3565b6000836040516103689190610bf8565b9081526020016040518091039020846040516103849190610bf8565b908152602001604051809103902081905550806001836040516103a79190610bf8565b9081526020016040518091039020600101546103c39190610dd3565b6001836040516103d39190610bf8565b9081526020016040518091039020600101819055506001826040516103f89190610bf8565b90815260200160405180910390206002018390806001815401808255809150506001900390600052602060002001600090919091909150908051906020019061044292919061077b565b506001826040516104539190610bf8565b908152602001604051809103902060050160009054906101000a900460ff16156104af577f5632677722513346181a87628b856d0101ecaa631036f77d14d1f3c17542f8d3826040516104a69190610c84565b60405180910390a15b505050565b60606001826040516104c69190610bf8565b9081526020016040518091039020600201805480602002602001604051908101604052809291908181526020016000905b828210156105a357838290600052602060002001805461051690610e81565b80601f016020809104026020016040519081016040528092919081815260200182805461054290610e81565b801561058f5780601f106105645761010080835404028352916020019161058f565b820191906000526020600020905b81548152906001019060200180831161057257829003601f168201915b5050505050815260200190600101906104f7565b505050509050919050565b60006001826040516105c09190610bf8565b9081526020016040518091039020600201805490509050919050565b6001818051602081018201805184825260208301602085012081835280955050505050506000915090508060000160009054906101000a900460ff16908060010154908060030154908060040154908060050160009054906101000a900460ff16905085565b600015156001846040516106569190610bf8565b908152602001604051809103902060000160009054906101000a900460ff161515146106b7576040517f08c379a00000000000000000000000000000000000000000000000000000000081526004016106ae90610cc6565b60405180910390fd5b600180846040516106c89190610bf8565b908152602001604051809103902060000160006101000a81548160ff021916908315150217905550816001846040516107019190610bf8565b908152602001604051809103902060030181905550806001846040516107279190610bf8565b908152602001604051809103902060040181905550600060018460405161074e9190610bf8565b908152602001604051809103902060050160006101000a81548160ff021916908315150217905550505050565b82805461078790610e81565b90600052602060002090601f0160209004810192826107a957600085556107f0565b82601f106107c257805160ff19168380011785556107f0565b828001600101855582156107f0579182015b828111156107ef5782518255916020019190600101906107d4565b5b5090506107fd9190610801565b5090565b5b8082111561081a576000816000905550600101610802565b5090565b600061083161082c84610d32565b610d01565b90508281526020810184848401111561084957600080fd5b610854848285610e3f565b509392505050565b600082601f83011261086d57600080fd5b813561087d84826020860161081e565b91505092915050565b60008135905061089581610f51565b92915050565b6000602082840312156108ad57600080fd5b600082013567ffffffffffffffff8111156108c757600080fd5b6108d38482850161085c565b91505092915050565b600080604083850312156108ef57600080fd5b600083013567ffffffffffffffff81111561090957600080fd5b6109158582860161085c565b925050602083013567ffffffffffffffff81111561093257600080fd5b61093e8582860161085c565b9150509250929050565b60008060006060848603121561095d57600080fd5b600084013567ffffffffffffffff81111561097757600080fd5b6109838682870161085c565b935050602084013567ffffffffffffffff8111156109a057600080fd5b6109ac8682870161085c565b92505060406109bd86828701610886565b9150509250925092565b6000806000606084860312156109dc57600080fd5b600084013567ffffffffffffffff8111156109f657600080fd5b610a028682870161085c565b9350506020610a1386828701610886565b9250506040610a2486828701610886565b9150509250925092565b6000610a3a8383610ac6565b905092915050565b6000610a4d82610d72565b610a578185610d95565b935083602082028501610a6985610d62565b8060005b85811015610aa55784840389528151610a868582610a2e565b9450610a9183610d88565b925060208a01995050600181019050610a6d565b50829750879550505050505092915050565b610ac081610e29565b82525050565b6000610ad182610d7d565b610adb8185610da6565b9350610aeb818560208601610e4e565b610af481610f40565b840191505092915050565b6000610b0a82610d7d565b610b148185610db7565b9350610b24818560208601610e4e565b610b2d81610f40565b840191505092915050565b6000610b4382610d7d565b610b4d8185610dc8565b9350610b5d818560208601610e4e565b80840191505092915050565b6000610b76600e83610db7565b91507f43616d70206e6f7420666f756e640000000000000000000000000000000000006000830152602082019050919050565b6000610bb6601383610db7565b91507f43616d7020616c726561647920657869737473000000000000000000000000006000830152602082019050919050565b610bf281610e35565b82525050565b6000610c048284610b38565b915081905092915050565b60006020820190508181036000830152610c298184610a42565b905092915050565b600060a082019050610c466000830188610ab7565b610c536020830187610be9565b610c606040830186610be9565b610c6d6060830185610be9565b610c7a6080830184610ab7565b9695505050505050565b60006020820190508181036000830152610c9e8184610aff565b905092915050565b60006020820190508181036000830152610cbf81610b69565b9050919050565b60006020820190508181036000830152610cdf81610ba9565b9050919050565b6000602082019050610cfb6000830184610be9565b92915050565b6000604051905081810181811067ffffffffffffffff82111715610d2857610d27610f11565b5b8060405250919050565b600067ffffffffffffffff821115610d4d57610d4c610f11565b5b601f19601f8301169050602081019050919050565b6000819050602082019050919050565b600081519050919050565b600081519050919050565b6000602082019050919050565b600082825260208201905092915050565b600082825260208201905092915050565b600082825260208201905092915050565b600081905092915050565b6000610dde82610e35565b9150610de983610e35565b9250827fffffffffffffffffffffffffffffffffffffffffffffffffffffffffffffffff03821115610e1e57610e1d610eb3565b5b828201905092915050565b60008115159050919050565b6000819050919050565b82818337600083830152505050565b60005b83811015610e6c578082015181840152602081019050610e51565b83811115610e7b576000848401525b50505050565b60006002820490506001821680610e9957607f821691505b60208210811415610ead57610eac610ee2565b5b50919050565b7f4e487b7100000000000000000000000000000000000000000000000000000000600052601160045260246000fd5b7f4e487b7100000000000000000000000000000000000000000000000000000000600052602260045260246000fd5b7f4e487b7100000000000000000000000000000000000000000000000000000000600052604160045260246000fd5b6000601f19601f8301169050919050565b610f5a81610e35565b8114610f6557600080fd5b5056fea26469706673582212209876071d68c897230e71112b640e2585976d63dd24935a4f60135c2e50e142bb64736f6c63430008000033",
  "immutableReferences": {},
  "source": "// SPDX-License-Identifier: GPL-3.0\n\npragma solidity ^0.8.0;\n\n// Camp - A camp that is created by a Creative ( OP - Original Posters ) on Collective to raise funding\n\n// Angel - Angels are the users who buy equity in exchange of CTV - CollectiveToken\n\ncontract Camps {\n    \n    mapping(string =>mapping(string => uint)) public funding;\n    mapping(string => CampDetails) public camps;\n    \n    struct CampDetails{\n        bool campExists;\n        uint fundingRaised;\n        string[] angelList;\n        uint target;\n        uint equity;\n        bool targetReached;\n    }\n    \n    \n    //Create a new camp on Collective\n    \n    function createCamp(string memory _camp, uint _target, uint _equity) public {\n        require(camps[_camp].campExists == false,\"Camp already exists\");\n        camps[_camp].campExists = true;\n        camps[_camp].target = _target;\n        camps[_camp].equity = _equity;\n        camps[_camp].targetReached = false;\n    }\n    \n    \n    // Emit event when the camp target is reached\n    \n    event targetReachedForCamp(string _camp);\n    \n    \n    // Buying equity in the camp\n    \n    function buyEquity(string memory _angel,string memory _camp,uint _amount) public {\n        require(camps[_camp].campExists == true && camps[_camp].targetReached == false,'Camp not found');\n        if(camps[_camp].fundingRaised + _amount >= camps[_camp].target){\n            camps[_camp].targetReached = true;\n        }\n        funding[_camp][_angel] = funding[_camp][_angel] + _amount;\n        camps[_camp].fundingRaised = camps[_camp].fundingRaised + _amount;\n        camps[_camp].angelList.push(_angel);\n        \n\n        if(camps[_camp].targetReached){\n            emit targetReachedForCamp(_camp);\n        }\n        \n    }\n    \n    \n    // get the total number of Angels who bought equity in a camp \n    \n    function getAngelListLength(string memory _camp) public view returns(uint){\n        return camps[_camp].angelList.length;\n    }\n    \n    \n     // get the list of Angels who bought equity in a camp \n    \n    function getAngelList(string memory _camp) public view returns(string[] memory){\n        return camps[_camp].angelList;\n    }\n    \n    \n\n}\n\n\n\n\n\n\n",
  "sourcePath": "D:/SagarWorkspace/Collective/backend/contracts/Camps.sol",
  "compiler": {
    "name": "solc",
    "version": "0.8.0+commit.c7dfd78e.Emscripten.clang"
  },
  "schemaVersion": "3.2.3",
  "updatedAt": "2021-05-25T11:39:56.924Z",
  "networkType": "ethereum",
  "devdoc": {
    "kind": "dev",
    "methods": {},
    "version": 1
  },
  "userdoc": {
    "kind": "user",
    "methods": {},
    "version": 1
  }
}