{
  "contractName": "Camps",
  "abi": [
    {
      "anonymous": false,
      "inputs": [
        {
          "indexed": false,
          "internalType": "address",
          "name": "_camp",
          "type": "address"
        }
      ],
      "name": "targetReachedForCamp",
      "type": "event"
    },
    {
      "inputs": [
        {
          "internalType": "address",
          "name": "",
          "type": "address"
        }
      ],
      "name": "camps",
      "outputs": [
        {
          "internalType": "bool",
          "name": "campExists",
          "type": "bool"
        },
        {
          "internalType": "uint256",
          "name": "fundingRaised",
          "type": "uint256"
        },
        {
          "internalType": "uint256",
          "name": "target",
          "type": "uint256"
        },
        {
          "internalType": "uint256",
          "name": "equity",
          "type": "uint256"
        },
        {
          "internalType": "bool",
          "name": "targetReached",
          "type": "bool"
        }
      ],
      "stateMutability": "view",
      "type": "function",
      "constant": true
    },
    {
      "inputs": [
        {
          "internalType": "address",
          "name": "",
          "type": "address"
        },
        {
          "internalType": "address",
          "name": "",
          "type": "address"
        }
      ],
      "name": "funding",
      "outputs": [
        {
          "internalType": "uint256",
          "name": "",
          "type": "uint256"
        }
      ],
      "stateMutability": "view",
      "type": "function",
      "constant": true
    },
    {
      "inputs": [
        {
          "internalType": "address",
          "name": "_camp",
          "type": "address"
        },
        {
          "internalType": "uint256",
          "name": "_target",
          "type": "uint256"
        },
        {
          "internalType": "uint256",
          "name": "_equity",
          "type": "uint256"
        }
      ],
      "name": "createCamp",
      "outputs": [],
      "stateMutability": "nonpayable",
      "type": "function"
    },
    {
      "inputs": [
        {
          "internalType": "address",
          "name": "_angel",
          "type": "address"
        },
        {
          "internalType": "address",
          "name": "_camp",
          "type": "address"
        },
        {
          "internalType": "uint256",
          "name": "_amount",
          "type": "uint256"
        }
      ],
      "name": "buyEquity",
      "outputs": [],
      "stateMutability": "nonpayable",
      "type": "function"
    },
    {
      "inputs": [
        {
          "internalType": "address",
          "name": "_camp",
          "type": "address"
        }
      ],
      "name": "getAngelListLength",
      "outputs": [
        {
          "internalType": "uint256",
          "name": "",
          "type": "uint256"
        }
      ],
      "stateMutability": "view",
      "type": "function",
      "constant": true
    },
    {
      "inputs": [
        {
          "internalType": "address",
          "name": "_camp",
          "type": "address"
        }
      ],
      "name": "getAngelList",
      "outputs": [
        {
          "internalType": "address[]",
          "name": "",
          "type": "address[]"
        }
      ],
      "stateMutability": "view",
      "type": "function",
      "constant": true
    },
    {
      "inputs": [
        {
          "internalType": "address",
          "name": "_col",
          "type": "address"
        },
        {
          "internalType": "address",
          "name": "_camp",
          "type": "address"
        },
        {
          "internalType": "uint256",
          "name": "_amount",
          "type": "uint256"
        }
      ],
      "name": "collab",
      "outputs": [],
      "stateMutability": "nonpayable",
      "type": "function"
    },
    {
      "inputs": [
        {
          "internalType": "address",
          "name": "_camp",
          "type": "address"
        }
      ],
      "name": "getCollabDetails",
      "outputs": [
        {
          "components": [
            {
              "internalType": "address",
              "name": "colAddress",
              "type": "address"
            },
            {
              "internalType": "uint256",
              "name": "amount",
              "type": "uint256"
            }
          ],
          "internalType": "struct Camps.CollaboratorsList[]",
          "name": "",
          "type": "tuple[]"
        }
      ],
      "stateMutability": "view",
      "type": "function",
      "constant": true
    }
  ],
  "bytecode": "0x608060405234801561001057600080fd5b50611272806100206000396000f3fe608060405234801561001057600080fd5b50600436106100a5576000357c01000000000000000000000000000000000000000000000000000000009004806344431c771161007857806344431c771461012e5780636e5cda3f14610162578063b7f50b1714610192578063d4ca1d84146101c2576100a5565b8063232d33b5146100aa5780632c93f988146100c6578063343ca73d146100f657806338ef159914610112575b600080fd5b6100c460048036038101906100bf9190610d2d565b6101f2565b005b6100e060048036038101906100db9190610cc8565b610376565b6040516100ed9190610fcc565b60405180910390f35b610110600480360381019061010b9190610d7c565b610446565b005b61012c60048036038101906101279190610d2d565b610624565b005b61014860048036038101906101439190610cc8565b610ad9565b604051610159959493929190611010565b60405180910390f35b61017c60048036038101906101779190610cc8565b610b29565b6040516101899190610fee565b60405180910390f35b6101ac60048036038101906101a79190610cc8565b610c2a565b6040516101b991906110a3565b60405180910390f35b6101dc60048036038101906101d79190610cf1565b610c79565b6040516101e991906110a3565b60405180910390f35b60011515600160008473ffffffffffffffffffffffffffffffffffffffff1673ffffffffffffffffffffffffffffffffffffffff16815260200190815260200160002060000160009054906101000a900460ff16151514610288576040517f08c379a000000000000000000000000000000000000000000000000000000000815260040161027f90611063565b60405180910390fd5b600160008373ffffffffffffffffffffffffffffffffffffffff1673ffffffffffffffffffffffffffffffffffffffff16815260200190815260200160002060030160405180604001604052808573ffffffffffffffffffffffffffffffffffffffff16815260200183815250908060018154018082558091505060019003906000526020600020906002020160009091909190915060008201518160000160006101000a81548173ffffffffffffffffffffffffffffffffffffffff021916908373ffffffffffffffffffffffffffffffffffffffff160217905550602082015181600101555050505050565b6060600160008373ffffffffffffffffffffffffffffffffffffffff1673ffffffffffffffffffffffffffffffffffffffff16815260200190815260200160002060020180548060200260200160405190810160405280929190818152602001828054801561043a57602002820191906000526020600020905b8160009054906101000a900473ffffffffffffffffffffffffffffffffffffffff1673ffffffffffffffffffffffffffffffffffffffff16815260200190600101908083116103f0575b50505050509050919050565b60001515600160008573ffffffffffffffffffffffffffffffffffffffff1673ffffffffffffffffffffffffffffffffffffffff16815260200190815260200160002060000160009054906101000a900460ff161515146104dc576040517f08c379a00000000000000000000000000000000000000000000000000000000081526004016104d390611083565b60405180910390fd5b60018060008573ffffffffffffffffffffffffffffffffffffffff1673ffffffffffffffffffffffffffffffffffffffff16815260200190815260200160002060000160006101000a81548160ff02191690831515021790555081600160008573ffffffffffffffffffffffffffffffffffffffff1673ffffffffffffffffffffffffffffffffffffffff1681526020019081526020016000206004018190555080600160008573ffffffffffffffffffffffffffffffffffffffff1673ffffffffffffffffffffffffffffffffffffffff168152602001908152602001600020600501819055506000600160008573ffffffffffffffffffffffffffffffffffffffff1673ffffffffffffffffffffffffffffffffffffffff16815260200190815260200160002060060160006101000a81548160ff021916908315150217905550505050565b60011515600160008473ffffffffffffffffffffffffffffffffffffffff1673ffffffffffffffffffffffffffffffffffffffff16815260200190815260200160002060000160009054906101000a900460ff1615151480156106da575060001515600160008473ffffffffffffffffffffffffffffffffffffffff1673ffffffffffffffffffffffffffffffffffffffff16815260200190815260200160002060060160009054906101000a900460ff161515145b610719576040517f08c379a000000000000000000000000000000000000000000000000000000000815260040161071090611063565b60405180910390fd5b600160008373ffffffffffffffffffffffffffffffffffffffff1673ffffffffffffffffffffffffffffffffffffffff1681526020019081526020016000206004015481600160008573ffffffffffffffffffffffffffffffffffffffff1673ffffffffffffffffffffffffffffffffffffffff168152602001908152602001600020600101546107aa9190611141565b1061080a5760018060008473ffffffffffffffffffffffffffffffffffffffff1673ffffffffffffffffffffffffffffffffffffffff16815260200190815260200160002060060160006101000a81548160ff0219169083151502179055505b806000808473ffffffffffffffffffffffffffffffffffffffff1673ffffffffffffffffffffffffffffffffffffffff16815260200190815260200160002060008573ffffffffffffffffffffffffffffffffffffffff1673ffffffffffffffffffffffffffffffffffffffff168152602001908152602001600020546108919190611141565b6000808473ffffffffffffffffffffffffffffffffffffffff1673ffffffffffffffffffffffffffffffffffffffff16815260200190815260200160002060008573ffffffffffffffffffffffffffffffffffffffff1673ffffffffffffffffffffffffffffffffffffffff1681526020019081526020016000208190555080600160008473ffffffffffffffffffffffffffffffffffffffff1673ffffffffffffffffffffffffffffffffffffffff1681526020019081526020016000206001015461095e9190611141565b600160008473ffffffffffffffffffffffffffffffffffffffff1673ffffffffffffffffffffffffffffffffffffffff16815260200190815260200160002060010181905550600160008373ffffffffffffffffffffffffffffffffffffffff1673ffffffffffffffffffffffffffffffffffffffff168152602001908152602001600020600201839080600181540180825580915050600190039060005260206000200160009091909190916101000a81548173ffffffffffffffffffffffffffffffffffffffff021916908373ffffffffffffffffffffffffffffffffffffffff160217905550600160008373ffffffffffffffffffffffffffffffffffffffff1673ffffffffffffffffffffffffffffffffffffffff16815260200190815260200160002060060160009054906101000a900460ff1615610ad4577fa13ac8def81f33998d29b46ff52805497ccd12bc15d76006d7ec0e5982f93efc82604051610acb9190610fb1565b60405180910390a15b505050565b60016020528060005260406000206000915090508060000160009054906101000a900460ff16908060010154908060040154908060050154908060060160009054906101000a900460ff16905085565b6060600160008373ffffffffffffffffffffffffffffffffffffffff1673ffffffffffffffffffffffffffffffffffffffff168152602001908152602001600020600301805480602002602001604051908101604052809291908181526020016000905b82821015610c1f57838290600052602060002090600202016040518060400160405290816000820160009054906101000a900473ffffffffffffffffffffffffffffffffffffffff1673ffffffffffffffffffffffffffffffffffffffff1673ffffffffffffffffffffffffffffffffffffffff16815260200160018201548152505081526020019060010190610b8d565b505050509050919050565b6000600160008373ffffffffffffffffffffffffffffffffffffffff1673ffffffffffffffffffffffffffffffffffffffff168152602001908152602001600020600201805490509050919050565b6000602052816000526040600020602052806000526040600020600091509150505481565b600081359050610cad8161120e565b92915050565b600081359050610cc281611225565b92915050565b600060208284031215610cda57600080fd5b6000610ce884828501610c9e565b91505092915050565b60008060408385031215610d0457600080fd5b6000610d1285828601610c9e565b9250506020610d2385828601610c9e565b9150509250929050565b600080600060608486031215610d4257600080fd5b6000610d5086828701610c9e565b9350506020610d6186828701610c9e565b9250506040610d7286828701610cb3565b9150509250925092565b600080600060608486031215610d9157600080fd5b6000610d9f86828701610c9e565b9350506020610db086828701610cb3565b9250506040610dc186828701610cb3565b9150509250925092565b6000610dd78383610dfb565b60208301905092915050565b6000610def8383610f64565b60408301905092915050565b610e0481611197565b82525050565b610e1381611197565b82525050565b6000610e24826110de565b610e2e818561110e565b9350610e39836110be565b8060005b83811015610e6a578151610e518882610dcb565b9750610e5c836110f4565b925050600181019050610e3d565b5085935050505092915050565b6000610e82826110e9565b610e8c818561111f565b9350610e97836110ce565b8060005b83811015610ec8578151610eaf8882610de3565b9750610eba83611101565b925050600181019050610e9b565b5085935050505092915050565b610ede816111a9565b82525050565b6000610ef1600e83611130565b91507f43616d70206e6f7420666f756e640000000000000000000000000000000000006000830152602082019050919050565b6000610f31601383611130565b91507f43616d7020616c726561647920657869737473000000000000000000000000006000830152602082019050919050565b604082016000820151610f7a6000850182610dfb565b506020820151610f8d6020850182610f93565b50505050565b610f9c816111d5565b82525050565b610fab816111d5565b82525050565b6000602082019050610fc66000830184610e0a565b92915050565b60006020820190508181036000830152610fe68184610e19565b905092915050565b600060208201905081810360008301526110088184610e77565b905092915050565b600060a0820190506110256000830188610ed5565b6110326020830187610fa2565b61103f6040830186610fa2565b61104c6060830185610fa2565b6110596080830184610ed5565b9695505050505050565b6000602082019050818103600083015261107c81610ee4565b9050919050565b6000602082019050818103600083015261109c81610f24565b9050919050565b60006020820190506110b86000830184610fa2565b92915050565b6000819050602082019050919050565b6000819050602082019050919050565b600081519050919050565b600081519050919050565b6000602082019050919050565b6000602082019050919050565b600082825260208201905092915050565b600082825260208201905092915050565b600082825260208201905092915050565b600061114c826111d5565b9150611157836111d5565b9250827fffffffffffffffffffffffffffffffffffffffffffffffffffffffffffffffff0382111561118c5761118b6111df565b5b828201905092915050565b60006111a2826111b5565b9050919050565b60008115159050919050565b600073ffffffffffffffffffffffffffffffffffffffff82169050919050565b6000819050919050565b7f4e487b7100000000000000000000000000000000000000000000000000000000600052601160045260246000fd5b61121781611197565b811461122257600080fd5b50565b61122e816111d5565b811461123957600080fd5b5056fea2646970667358221220ad41f571c20f4269a954500ea644b5bb0c601ca5734d1361a671b41a8e2e664e64736f6c63430008000033",
  "immutableReferences": {},
  "source": "// SPDX-License-Identifier: GPL-3.0\n\npragma solidity ^0.8.0;\n\n// Camp - A camp that is created by a Creative ( OP - Original Posters ) on Collective to raise funding\n\n// Angel - Angels are the users/investors who buy equity in exchange of CTV - CollectiveToken\n\n// Col - Collaborator who collaborates in a camp in exchange of CTV\n\ncontract Camps {\n    \n    // m => (camp_address => m (angel_address => investment_amount)) \n    mapping(address => mapping(address => uint)) public funding;\n    \n    \n    mapping(address => CampDetails) public camps;\n    \n    \n    // Struct to save collaborator details\n    \n    struct CollaboratorsList {\n        address colAddress;\n        uint amount;\n    }\n    \n    \n    // Camp details struct\n    \n    struct CampDetails{\n        bool campExists;\n        uint fundingRaised;\n        address[] angelList;\n        CollaboratorsList[] colList;\n        uint target;\n        uint equity;\n        bool targetReached;\n    }\n    \n    \n    \n    \n    // Create a new camp on Collective\n    \n    function createCamp(address _camp, uint _target, uint _equity) public {\n        require(camps[_camp].campExists == false,\"Camp already exists\");\n        camps[_camp].campExists = true;\n        camps[_camp].target = _target;\n        camps[_camp].equity = _equity;\n        camps[_camp].targetReached = false;\n    }\n    \n    \n    // Emit event when the camp target is reached\n    \n    event targetReachedForCamp(address _camp);\n    \n    \n    // Buying equity in the camp\n    \n    function buyEquity(address _angel,address _camp,uint _amount) public {\n        require(camps[_camp].campExists == true && camps[_camp].targetReached == false,'Camp not found');\n        if(camps[_camp].fundingRaised + _amount >= camps[_camp].target){\n            camps[_camp].targetReached = true;\n        }\n        funding[_camp][_angel] = funding[_camp][_angel] + _amount;\n        camps[_camp].fundingRaised = camps[_camp].fundingRaised + _amount;\n        camps[_camp].angelList.push(_angel);\n        \n\n        if(camps[_camp].targetReached){\n            emit targetReachedForCamp( _camp);\n        }\n        \n    }\n    \n    // get the total number of Angels who bought equity in a camp \n    \n    function getAngelListLength(address _camp) public view returns(uint){\n        return camps[_camp].angelList.length;\n    }\n    \n    \n     // get the list of Angels who bought equity in a camp \n    \n    function getAngelList(address _camp) public view returns(address[] memory){\n        return camps[_camp].angelList;\n    }\n    \n    \n    // Collaborate in a camp\n    \n    function collab(address _col,address _camp,uint _amount) public {\n        require(camps[_camp].campExists == true,'Camp not found');\n        camps[_camp].colList.push(CollaboratorsList({\n            colAddress : _col,\n            amount : _amount\n        }));\n    }\n    \n    \n    // Get collab details for a camp\n    \n    function getCollabDetails(address _camp) public view returns (CollaboratorsList[] memory){\n        return camps[_camp].colList;\n    }\n    \n}\n",
  "sourcePath": "D:/SagarWorkspace/Collective/backend/contracts/Camps.sol",
  "compiler": {
    "name": "solc",
    "version": "0.8.0+commit.c7dfd78e.Emscripten.clang"
  },
  "schemaVersion": "3.2.3",
  "updatedAt": "2021-08-17T07:16:04.895Z",
  "networkType": "ethereum",
  "devdoc": {
    "kind": "dev",
    "methods": {},
    "version": 1
  },
  "userdoc": {
    "kind": "user",
    "methods": {},
    "version": 1
  }
}